:020000040001F9
:10800000F0310020358101004F81010051810100D4
:108010000000000000000000000000000000000060
:10802000000000000000000000000000538101007B
:108030000000000000000000558101005781010090
:108040005981010059810100B18E0100598101005F
:108050005981010000000000ED880100BD88010089
:1080600059810100598101005981010059810100A4
:108070005981010059810100598101005981010094
:1080800059810100A98B010059810100598101002A
:10809000918D010059810100998D010059810100E4
:1080A000598101005981010000000000000000001A
:1080B00000000000000000000000000000000000C0
:1080C0000348854600F0D6FB0048004711B7010081
:1080D000F0310020401E00BF00BF00BF00BF00BF46
:1080E00000BF00BF00BF00BF00BF00BF00BFF1D195
:1080F00070470000401E00BF00BF00BF00BF00BFB0
:1081000000BF00BF00BF00BF00BF00BF00BFF1D174
:1081100070470000401E00BF00BF00BF00BF00BF8F
:1081200000BF00BF00BF00BF00BF00BF00BFF1D154
:10813000704700000321094802680A4302600848AA
:1081400002680A4302600748804707480047FEE785
:10815000FEE7FEE7FEE7FEE7FEE70000240500403D
:1081600054050040318E0100C180010030B50B463E
:10817000014600202022012409E00D46D5409D4201
:1081800005D31D469540491B254695404019154687
:10819000521E002DF1DC30BD70B5002425460028AC
:1081A00001DA01244042002901DA01254942FFF7A2
:1081B000DDFFAC4200D04042002C00D0494270BDEF
:1081C00003460B439B0703D009E008C9121F08C0F0
:1081D000042AFAD203E00B780370401C491C521E9B
:1081E000F9D27047D2B201E00270401C491EFBD2A6
:1081F00070470022F6E710B513460A4604461946B2
:10820000FFF7F0FF204610BD421C0178401C0029FA
:10821000FBD1801A704730B504460020034600E0C9
:108220005B1C934203D2E05CCD5C401BF8D030BDB8
:10823000F8B502464A40D40F42004B0052085B0892
:108240009A4202D20246084611464A0023D0C30D84
:108250004A00DDB2120EAD1A202D35DA4902012690
:10826000490AF6058A19002C00D0524220214F1BE2
:108270001146B9402A411018C20D9A4221D0002C53
:1082800017D0012D08DCDA05801AD20F8019D20729
:10829000DBB200F056FAF8BDDA05801A012340007F
:1082A0001B06C01880185A428018CA0F1043490094
:1082B00007E04908C2071143DA05801A801940080F
:1082C000801800F036FAF8BD61000122511A001B37
:1082D000F7E70122D2075140AAE70122D207504016
:1082E000A6E7024670B54A40D30FDB0740002DD009
:1082F0004A002AD0010E140E000212020919400A87
:10830000520A8418E50104465443000A120A2E0456
:108310005043A4194219200CC543AA18120C012578
:10832000AD03521C521912047F39240400D0521C90
:10833000104301D44000491EC2B20C06C0092018E7
:10834000401C4008802A02D003E0002070BD400895
:108350004000002900DA0020184370BDF0B5074640
:108360000846584087B0C00F049048000E46590098
:1083700040084908BC1A884105D2384631461E4695
:1083800017460B4602465800400810434CD0300DAB
:10839000039040055900400D490D0590401A029088
:1083A000402872DA18030121000B090508430190E7
:1083B00004980092002805D001995242002088417B
:1083C00000920190029840210A1A0199009800F049
:1083D0008DF905460C466B4607CB00F097F9C0199E
:1083E0007141039A0E0D0023D71756401A467A4062
:1083F000164344D0049A002A2DD0029A012A039AE7
:1084000015DC1205C01A914101263605001C714188
:10841000D20F059ED2070093019202962A46234668
:1084200000F0D5F907B0F0BD38463146FAE7160539
:10843000224A0F46B218C01AB74101210905001C93
:108440004F4100187F41114618187941E20F10433F
:108450006D19644113E0E2076D0815436408C20713
:108460001443039A01261205C01A91413605001CD7
:108470007141CE07400830434908C01851412A468F
:10848000234600F097F9CDE7FFE70498012240006A
:10849000C117121A00238B4104983146C417381AA9
:1084A000A141EEE730B40124E407634030BC55E756
:1084B00030B40124E407614030BC4FE70000E0FF26
:1084C000F0B51FB488B00B99099800244840099969
:1084D000C00F490049080991C0070B990090490055
:1084E00049080B9109990898A64608431CD00B9996
:1084F0000A98084318D0099801244000420D48000A
:10850000410D099824050003000B204309900B98A6
:108510000003000B20430B9050181C494018002208
:1085200001901446104605E0002001460DB0F0BD54
:10853000032801DA034600E003239C46C11A0AAE71
:108540000AE05F0008ADED5B4F00F75B7D4300275D
:10855000AA187C41491C5B1E6145F2DD410004AB59
:108560005A522104120C0A43240C401C0828DFDB59
:10857000019802900099704601910090059B049A21
:108580000799069800F023F9D0E700000DFCFFFFE3
:10859000C217C10F504010B54018CA0796230021DA
:1085A00000F0CFF810BD10B500229623114600F060
:1085B000C8F810BD0EB505490291002100910A4688
:1085C0000B46019100F003F903B000BD3304000035
:1085D000C20F410040020123400ADB05D207090E09
:1085E000C0187F2901DA00207047962903DC962302
:1085F000591AC84001E096398840002AF4D0404218
:108600007047410040020122400AD205090E80183D
:108610007F2901DA00207047962903DC9622511A3F
:10862000C8407047963988407047000010B500294F
:1086300004DB0124E40740428C412146002B04DB8B
:108640001C460123DB075242A341994200D19042CC
:1086500010BD0000CB0FDB07490010B549080246EA
:108660000A4307D00A0D07240903E401090B121B72
:10867000002A01DC002010BDC900440F0C43C100DA
:10868000E018D205801800F054F810BDF0B51FB402
:108690000646002082B005464024019100901BE070
:1086A000019922460F46304600F0F6F8049A059BE1
:1086B000801A994110D310461946224600F016F848
:1086C000361A8F410197224601200021009F00F0B9
:1086D0000DF838184D4100902046641E0028DFDC5C
:1086E000019B00982946324607B0F0BD10B5202AFC
:1086F00004DB0146203A9140002010BD9140202328
:108700009C1A0346E3401943904010BD10B5202A3F
:1087100006DBCB170846203A1041C1170B4306E091
:108720000B461341D0402024A21A91400843194619
:1087300010BD002904DA401C490001D14008400066
:10874000704770B40024050C05D11024000402D138
:10875000002921D01124050E01D100020834050F93
:1087600001D10001241D850F01D18000A41C002827
:1087700001DB4000641C002908D020252E1B0D467B
:10878000F540A14000D001212943084301061B1BED
:10879000000ADB1D02D5002070BC7047DB051818ED
:1087A00080180029F8DA401C4900F5D170BC400857
:1087B0004000704710B5002B08DA0024401C6141CE
:1087C00092185B411A4301D14008400010BDF0B53A
:1087D0001FB482B005460C0003D0084600F0BCFB75
:1087E00002E000F0B9FB2030024600902146284606
:1087F000FFF77CFF049B059A04460F46184311437C
:10880000084314D0184610431BD0009840210A1A80
:108810001846059900F040F805460E46009A05995D
:108820000498FFF763FF084305D0012004E02046C9
:10883000394607B0F0BD0020C11705430E432C4355
:10884000374300990E986305401A7905E40A00221F
:108850000C43FD0A0A3002D500200146E9E7010574
:10886000101969410C9C0D9D00196941FFF7A2FF89
:10887000DFE70000064C0125064E05E0E36807CC63
:108880002B430C3C98471034B442F7D3FFF71CFC41
:10889000E4CD010004CE010010B5202A04DB084617
:1088A000203AD040002110BD0B46D340D0402024B8
:1088B000A21A91400843194610BD00000549002046
:1088C00008600548806805494860054901204860FE
:1088D0004ADF704700710040007500400020002012
:1088E0000070004010B5FFF715FC10BDF8B500246E
:1088F000FF210131394F264601202246384BCB1843
:108900001D68012D05D17D68054202D00025044374
:108910001D60091D4000521C89B2042AEED3314863
:108920000168012905D100210160400704432E4858
:108930000669200713D00127002527420BD02B48BA
:10894000AA00111808690969C004C00E284B8903E0
:108950009A58890F90477F006D1C042DEDD3002C91
:1089600038DA234D00242819403004214156491C8F
:108970002DD0017924228806800E2B189A56920059
:10898000AB58002B23D0890901228C468240194F15
:108990008100CF1939688903890F324202D0022938
:1089A00002D014E0032912D16246032A0DD1022914
:1089B00011D002213A688E46032109048A433A60A5
:1089C0003A68714609040A433A6061469847641C54
:1089D000052CC8D3F8BD0321ECE70000006300407C
:1089E000006000407C6100400005005000650040D0
:1089F000BC2800200007005007490320C860074A30
:108A00000823D36008611020D06005490020086069
:108A1000091D086070470000000700500005005065
:108A20000C070050F1B51F4900271D4D0F60802431
:108A300010261D49002008600120FFF76BFB032072
:108A4000FFF768FB19480169090700D5274303218F
:108A50002961C6600120FFF75DFB6408E9D1009839
:108A6000002803D00F490020086004E00320E860DC
:108A70000E480821C1600120FFF74CFB0A48002482
:108A800004600520FFF746FB032028610748C66005
:108A9000044804601420FFF73DFB3846F8BD000091
:108AA000000700500C070050100700500005005050
:108AB000F8B50B490020094C08601027091D086013
:108AC0000325E560074E0820F0600A20FFF722FB2F
:108AD0002561F7600A20FFF71DFBF8BD0007005075
:108AE0000C0700500005005010B50A490320C8606B
:108AF000094A0823D36008611020D0600748002489
:108B000004600A20FFF706FB054804600A20FFF70F
:108B100001FB10BD00070050000500501007005079
:108B20000C070050F8B50746002080241A4D102687
:108B300000903C4205D10320E86018490820C86035
:108B400002E01749002008600120FFF7E3FA154909
:108B5000002008600520FFF7DDFA032028610F4898
:108B6000C6600120FFF7D6FA6408E2D10C49002064
:108B70000860091D08600120FFF7CCFA0748016969
:108B8000090701D50121009103212961C660142044
:108B9000FFF7C0FA0098F8BD00070050000500502C
:108BA0000C07005010070050F8B52249002008605B
:108BB00048608860C8602049086048601F4E34697A
:108BC000601C35D01E48002740687169401A0502B4
:108BD0002D0A24204443B06822185068A84214D8B3
:108BE000B3692D1AC719146A002B09D0D16990698D
:108BF0009847002807D00022114600F005FE02E049
:108C00009169D0698847601CE3D1B178F0788142DE
:108C100006D1401CC0B2F070022801D10020F070D3
:108C200000060849800D0F50012007490005086023
:108C3000F8BD00004011014000110140E02000207B
:108C400000150140FC20002000E200E010B5800883
:108C50008000FFF7AFFC0022044BFFF731FC00223D
:108C6000034BFFF77BFBFFF7F5FC10BD00405F3FB8
:108C7000000018C010B580088000FFF79BFC054A73
:108C8000054BFFF71DFC054A054BFFF767FBFFF798
:108C9000E1FC10BDD7A3703D0AF7653FCDCCCCCC2D
:108CA000CC6C47C0F8B50E4607460025FFF700FF1D
:108CB0008020FFF737FF0446002F02D0012F09D193
:108CC00004E0F520FFF72EFF044303E0F320FFF755
:108CD00029FF0443224FFFF7EBFE3846FFF702FE61
:108CE00028466D1CADB2142804D28120FFF71AFF6C
:108CF0000128F0D0142D01D3022004430020FFF7F7
:108D000091FE6946087070700020FFF78BFE69467F
:108D1000487030700120FFF785FE00210226FF25F4
:108D20006F4684460B463235F85C414008220806FF
:108D300002D54800684000E04800521E1206C1B249
:108D4000120EF4D15B1CDBB2B342EDD3614501D00E
:108D5000042500E000252543FFF7C6FE2846F8BDA0
:108D60001027000070B5FFF7A3FE8020FFF7DAFEA2
:108D70000546FE20FFF7D6FE28430446FFF7B4FE63
:108D80000248FFF7AFFD204670BD0000983A000092
:108D900010B503F00DFD10BDF8B5244C6068002837
:108DA00007D08047002803D00022114600F02CFD98
:108DB000F8BD20780028FBD02069002807D00026C5
:108DC000E068002805D00025002E04D013E001261D
:108DD000F6E70125F8E7684651DF052806D00028A8
:108DE00006D00022114600F00FFD04E0012602E04B
:108DF000216900988847002D12D160886946088053
:108E0000A06861DF052806D0002806D000221146A0
:108E100000F0FAFC04E0012502E0E168A068884760
:108E2000002ED8D0002DCFD0F8BD000004210020A6
:108E30001A48018CC9B2012917D1828C120714D1AA
:108E4000028D1206130F03D1838D1B061B0F1ED03C
:108E5000120F012A03D1838D1B061B0F17D0032A83
:108E600003D1828D1206120F11D001290ED1818CEF
:108E700009070BD1018D0906090F042906D1808D40
:108E80000006000F02D10649012088607047064A9B
:108E900004495160D113054A9161EBE7C00F00F01E
:108EA00000060040DFFF07C000050040006C0040E6
:108EB000F0B51A4C83B0A068194D1A4E002700284F
:108EC0000ED0706840070BD5A76017488069042250
:108ED000C0B2A88069460A700871A96868468847C8
:108EE000E069002806D07068000603D5E76103201A
:108EF00002F0B0FE606A00280DD0706880050AD5C7
:108F000067620A490868086002216A461170019088
:108F1000A9686846884703B0F0BD00000021004002
:108F2000B0200020002300400025004080240040A5
:108F30000FB410B504A9074B02AA039800F058F823
:108F4000044602A9002000F08DFA204610BC08BC9F
:108F500004B01847659401002021020C01D01021B3
:108F60001046020A01D010460839020901D0104605
:108F7000091F820801D01046891E420801D0881EB0
:108F80007047081A70470021017041708170C170EC
:108F9000017170470021017041708170C1700171D1
:108FA000417170470021018041808180817170474B
:108FB000002101608180817170470A7802704B78CE
:108FC00043708A788270CA78C2700B7903717047D7
:108FD00002E008C8121F08C1002AFAD17047704782
:108FE000002001E001C1121F002AFBD170470000E0
:108FF000FFB591B00F460546002606E025280AD0A9
:10900000149A139990476D1C761C28780028F5D186
:10901000304615B0F0BD002400940121F34A0294BB
:1090200000E004436D1C2B780846203B984010421A
:10903000F7D128782A280ED0022128780246303A23
:10904000092A15D8009A0A235A43303A80180C434B
:109050006D1C0090F1E701CF0090002805DA012097
:1090600040030443009840420090022004436D1CDA
:1090700028782E2815D10420044368786D1C2A28EE
:109080000AD101CF6D1C02900BE002990A225143D4
:10909000303940186D1C0290287801463039092972
:1090A000F3D928786C2810D006DC4C281AD0682810
:1090B0000ED06A2817D104E0742813D07A2812D170
:1090C00010E00120400504430CE00121090501E006
:1090D000032109050C436978814203D10120000571
:1090E00024186D1C6D1C287803906E281ED00CDC93
:1090F000632831D004DC00288AD0582811D1B2E08E
:1091000064287BD069280CD178E073282DD004DC4A
:109110006F2870D0702804D1A7E075286CD078280B
:109120006BD0149A13999047761C62E06002400F4E
:10913000022807D003280AD0042838680AD006601D
:109140003F1D56E03868F11706604160F8E738685F
:109150000680F5E70670F3E7387869460874002062
:10916000487404A80390012003E0386803900020AD
:10917000C0433F1D61070FD5002101E00199491C43
:10918000029A0191914213DA8142F7DB019A039925
:10919000895C0029F2D10BE0002101E00199491C12
:1091A00001918142FADB019A0399895C0029F5D18A
:1091B00001990098139A401A00902146149B00F0E0
:1091C0003BF901998019461807E003980399007844
:1091D000491C0391149A139990470198401E0190DD
:1091E000401CF2D12146149B139A009800F014F908
:1091F00086196D1C09E741E033E034E00A200021C4
:10920000049005916002410F022905D001CFC217D9
:109210009446032905D007E0FF1DFF08FF0003CF98
:1092200006E000B2C2179446042902D140B2C11729
:109230008C4600226146944506DA0A4600214042E7
:1092400091418C462D2102E0210504D52B216A464F
:109250001176012103E0E10701D02021F7E7019118
:1092600054E00A200BE0102009E0102004900021B7
:109270000420044308200591029003E00820002107
:10928000059104906002410F022905D001CF002210
:109290009446032906D006E0FF1DFF08FF0003CF18
:1092A0008C4603E080B2042900D1C0B200210191B4
:1092B00021072BD50399702906D0049A1021059B0C
:1092C0004A401A4305D00EE040216A46117601213A
:1092D00008E06146014306D030216A4611760399C1
:1092E000517602210191049A0821059B4A401A43B4
:1092F0000CD16146014301D1610707D530216A468F
:109300001176012101910299491E02910399582970
:1093100004D037A103910FA90F910DE039A1F9E70E
:109320006146059B049AFFF7B1F9039B8C469B5C51
:109330000F9A521E0F92137061460143F0D10F989D
:1093400007A9081A20300390600704D50120000403
:109350008443029801E0012002900399884201DDD4
:10936000401A00E000204118029001980918009866
:10937000401A0090E00306D42146149B139A0098EB
:1093800000F05AF886190020049008E006A9085C4D
:10939000149A139990470498401C761C04900199E4
:1093A0008842F3DBE0030CD52146149B139A009806
:1093B00000F042F8861904E0149A3020139990477F
:1093C000761C0299481E02900029F5DC08E00F98EF
:1093D0000F990078491C0F91149A13999047761CA5
:1093E0000399481E03900029F1DCFBE609280100DF
:1093F000303132333435363738396162636465660B
:1094000000000000303132333435363738394142CC
:109410004344454600000000F8B5044600251E46BA
:109420001746880404D405E039462020B0476D1C57
:10943000641EF9D52846F8BDFFB50446002581B065
:109440001E46C80301D5302700E02027880404D534
:1094500005E038460399B0476D1C641EF9D52846CF
:1094600005B0F0BD0A68531C0B6010707047000017
:10947000FFB5002495B0601C02071D46120F1E9B0D
:1094800008A810320C940274601C0207120F08A87E
:1094900010324274827CF9273A40921C8274019403
:1094A000009402940394049468460694027802207F
:1094B0000243EF200240D807C00E0243DF200240E3
:1094C000684602700CA80590684601871B480EAEDE
:1094D0000FC81090119110A813931292811F63DF8F
:1094E000002803D00022114600F08EF908A91120AF
:1094F0000D9448750875887DF7213840801C084018
:10950000EF2108400121084308A988750DA8099496
:109510000A94694607960B9408908D84CC840D8537
:10952000159807AA0088179BA2DF002803D0002205
:10953000114600F069F919B0F0BD000078CD0100C6
:10954000F7B582B0002000901070029802260078D3
:1095500014460D46002826D002984078801C1F280B
:109560007ED81D2069468880A81C01A97DDF0028BF
:1095700077D102980078022805D1684680881D2896
:1095800001D8092108E0029808214078002801D07C
:109590001D2801D968468088421C2A70697021788C
:1095A000801C081820700298807800281BD0207832
:1095B000001D1F2854D801A879DF002851D1217837
:1095C0000322481C20706A5421781922481C2070FC
:1095D0006A5422786846808851190870000A4870D9
:1095E0002078801C20700298C07800280ED0217846
:1095F0000122481C20706E542078411C21702A548E
:109600000298C2782078411C21702A540298406840
:10961000002811D000272178C757C81C1F281FD841
:10962000481C20706E5421780A23481C20706B540B
:109630002078411C21702F540298008900280AD0FC
:1096400002982B46062202210094083003F0E4FA27
:10965000009000286CD10298008A00280DD001E00B
:1096600065E065E002982B46072203210094103044
:1096700003F0D2FA009000285AD10298008B0028FB
:109680000AD002982B46152214210094183003F0BA
:10969000C3FA009000284BD10298006A002839D004
:1096A000227829469446921D1F2A40D80288062A0D
:1096B0007ED31923DB01534E9A4201D9B24277D1AE
:1096C0004788062F74D39F4201D9B74270D1B24266
:1096D00003D0B74201D0BA426AD86246521C05266E
:1096E00063462270CE54237812265A1C2270CE5420
:1096F00022780388521813701B0A53702278921C28
:10970000D2B22270408851190870000A487020783F
:10971000801C20700298466A002E2CD03079237865
:10972000801CC0B2821C9A1829461F2A02D90C201C
:1097300005B0F0BD5A1C2270401CC8542278FF238B
:10974000501C20708B542078328840180270120A06
:1097500042702078801CC0B22070B288002A0AD0E3
:10976000B368002B4BD040191946FEF729FD20782D
:10977000317940182070029820300190007B002839
:109780003AD002992E46896A002938D0002500284F
:109790002ED90298816A0C2068430F1821783879F5
:1097A0004A1C2270C01C705420781622411C00E014
:1097B00025E0217032542178388889190870000A10
:1097C00048702078801CC0B22070BA88002A09D066
:1097D000B968002913D08019FEF7F2FC2078397996
:1097E0004018207001986D1C007BEDB2A842D0D8C3
:1097F0000020009005B0F0BD009805B0F0BD072036
:1098000005B0F0BDFFFF0000002404250B4EFF272C
:109810002D37B560384602F0EDF9F560384602F0B4
:10982000E9F9641C0A2CF4DBBFF34F8F05490448A7
:10983000C860BFF34F8F00BFFDE700000005005078
:109840000400FA0500ED00E070B4144DAC68002C83
:1098500012D0002A13D0002811D02D780023002D1B
:1098600007DD24265E43A65D002E0BD05B1CAB42B9
:10987000F7DB70BC0420704770BC0820704770BCD8
:1098800007207047242501265D4366552C19617019
:10989000A261036070BC002070470000E02000203F
:1098A000FFB581B01D4616460F46980773D1002DAF
:1098B00071D001243949600408603949401088603A
:1098C00038498860384844602F20FEF713FC36483A
:1098D0008460364C002060612F20FEF70BFC0020D6
:1098E00020710A98A0612770A560002F16D02C4621
:1098F000103C28462438F90704D000212430017098
:10990000243421707A0809D00021242319541955D0
:109910004830483401702170521EF6D1242047434C
:109920007819224A032151700021D0600170044649
:109930004170183486704460334618256B430172B9
:109940001C1941728672C460017441741B198674BB
:109950004361481E10619170D170012014490005C7
:10996000086014490B68C0241B0A1B0223430B60C8
:1099700011490860114901988860114B1868FF244B
:109980002402A043EC022043186048685061002084
:1099900005B0F0BDFFE7072005B0F0BD80E100E0B5
:1099A000401301400013014000100140E02000205E
:1099B00080E200E014E400E000E100E00015014076
:1099C00010E400E0F0B4354B9D68002D0CD01C78FD
:1099D000A04201D2052902D2F0BC072070472424FE
:1099E00044432E5D012E02D0F0BC0820704764195C
:1099F0006478012C16D00026294D6C68E405E40D2E
:109A000020D0103C64B2002C0EDA27073F0F083F2D
:109A1000BF08BF007D19ED69A407E40EE5402C06E0
:109A2000A40F0BE00E46E7E7A5081E4FAD00ED19A9
:109A30002D68A407E40EE5402C06A40F012C26D0C7
:109A4000032C26D002248C46DB68E100CC18637816
:109A5000A7781D465B1C9F4200D1002327789F42B8
:109A600019D0182167684D43791914D001250D705C
:109A700048600D48406888600E6160464A61C86071
:109A80000A49637028050860F0BC00207047002474
:109A9000D9E70124D7E7F0BC04207047E02000207C
:109AA00000ED00E000E400E00015014000E200E00D
:109AB0002D498A68002A09D00B78984201D30720E3
:109AC000704724234343D25C012A01D00820704709
:109AD000F0B4264B5A680424D205D20D002A1ED0B9
:109AE000103A52B2002A0CDA15072D0F083DAD08C6
:109AF000AD00EB18DB699207D20ED3401A06920F25
:109B000009E093081A4D9B005B191B689207D20E5F
:109B1000D3401A06920F012A1FD0032A1FD0022217
:109B2000C968D2005218517895780B46491C8D426D
:109B300000D10021167800258E4212D018275668D1
:109B40007B43F3180DD002241C70586051700949F2
:109B5000E00408602846F0BC70470022E0E70122DC
:109B6000DEE72046F0BC7047E020002000ED00E07A
:109B700000E400E000E200E070B50C4692B0002185
:109B80006A46117007251171002809D0C17849076C
:109B90000CD502A9FFF7D4FC002808D102AE00E0E2
:109BA0000026002C0ED0E078002802D0284612B003
:109BB00070BD01AA0AA92046FFF7C2FC0028F6D111
:109BC0000AAA00E00022684603790178304672DF75
:109BD00012B070BD002801D0002A01D10E207047BC
:109BE000FFB5044681B0514800270A9D47710561C1
:109BF000C3604BCA4E4D4BC54BCA4BC5106828605D
:109C00004C48503DFFF7D4F94C484B4901604C4952
:109C100081602F606F60AF60EF602F616F61AF6137
:109C2000EF612F626F62AF62EF62464B207818706F
:109C3000A0789870E078D870607858706169206971
:109C400069612861E168A068E960A8601846E26976
:109C5000A169C2618161606A002822D03A493B480B
:109C600059628860626A12880A80616A8A88596AC1
:109C7000002A8A8015D0616A401E8968491ED20771
:109C800003D04A784270401C491C5A6A9288520894
:109C900007D04D7845708D788570801C891C521EC8
:109CA000F7D1A06A002828D02A49294888609962FB
:109CB000A26A92888A80A16A9A6A09881180996A40
:109CC0008A88002A15D0A16A401E8968491ED207D9
:109CD00003D04A784270401C491C9A6A9288520804
:109CE00007D04D7845708D788570801C891C521E78
:109CF000F7D12C20015D18480173206A002808D094
:109D000016481862216A49884180206A196A0088C9
:109D100008806068002803D0114858606068586067
:109D200008480299FFF728FF05B0F0BD1420002075
:109D3000842600202C200020B8260020A826002001
:109D4000D826002054260020F826002004270020D2
:109D500030270020242700207426002028200020FF
:109D60001A20002010B50288244C102A17D0002198
:109D7000112A17D0192A11D1807900280ED16079C3
:109D800001281DD0022824D003282BD0042805D177
:109D90002171E2680846002A00D0904710BD8088F3
:109DA000208110BD6170808821898842F9D101200D
:109DB00000F03EF80028F4D0216900291CD110BD24
:109DC000022000F035F80028F9D02169002913D1CC
:109DD00010BD032000F02CF80028F9D021690029DB
:109DE0000AD110BD03202071042000F021F80028C2
:109DF000F7D021690029F4D0884710BD1420002035
:109E0000022801D0032810D110B5084C2078002872
:109E10000AD000202070607900F00AF8002803D0F2
:109E20002169002900D0884710BD70471420002008
:109E3000F0B57F4C87B06071002706A8069701F047
:109E40009DFF082809D0002805D10698002805D0D4
:109E500001202070002007B0F0BD0697754D284600
:109E6000FFF7A6F8744E7078002802D060790128B8
:109E700005D0B07800280BD06079022808D1E168BD
:109E8000002904D00120E0700820884700E0E77036
:109E90006079012802D0022818D02FE070780028BD
:109EA00012D06978681C002928D14178002925D171
:109EB0008178002922D1C17800291FD10179002998
:109EC0001CD14079002819D102206071B078002897
:109ED00012D06978681C002910D1417800290DD171
:109EE000817800290AD1C178002907D10179002998
:109EF00004D14079002801D103206071307B002813
:109F000004D16079032801D104206071307E0028DB
:109F100004D16079042801D167712771E1680029B3
:109F20000AD06079032801D0042805D130780028B0
:109F300002D06078002815D0A7700097019702978B
:109F40000397049768460597077007726279012A9C
:109F50000DD0022A12D039493948032A17D0042AD1
:109F600057D135E00120A07007208847E5E70120A0
:109F70006946019508704F820F823BE001210195EF
:109F8000017031894182B1880182022032E0B28AB7
:109F90006B465A82328A1A820279002A02D1027BE7
:109FA000002A05D03278002A02D06278002A01D037
:109FB00003201FE002221A7203900420C8700021BF
:109FC0001E48FFF7D9FD002800D044E705201FE018
:109FD000B28B6B461A82328C5A820279002A02D1E5
:109FE000027B002A05D03278002A02D06278002A4B
:109FF00002D0042020710FE002221A720390042084
:10A00000C87000210D48FFF7B7FD0028DDD10620FC
:10A0100020716079002803D0684673DF0028D4D10E
:10A02000E168002901D020798847002007B0F0BD01
:10A03000142000202C2000208426002054260020FC
:10A04000A826002073B487B0044608A9227C0978AA
:10A0500000208A4225D0002501266846009506800A
:10A06000458008A801902174E188608A6A46A4DFCF
:10A07000002816D1608A0E49884215D0207D00281C
:10A0800012D00295039504950595E18868460181F3
:10A09000867241888181049001980590608A02A9A6
:10A0A000A6DF09B070BC704709B070BC08207047CB
:10A0B000FFFF0000F0B5054693B008682860002057
:10A0C000C043688208792875FF20287401270E464E
:10A0D000684687734A4981812A1D03A93846A0DF53
:10A0E00000287DD1287D002400280DD001200146C4
:10A0F0006846103101940171717B41718179F920B9
:10A1000001406846891C817105940694079408945F
:10A1100009940A9469460B94087D02210843694614
:10A1200008752A7DEF21002A02D01022104300E09A
:10A1300008406A461075287D002800D001A80A90C2
:10A140000122684682722F4B03810094B37B037017
:10A15000F37B43708078F9231840F723801C184064
:10A160000F4638404108490068468170317B0174D0
:10A1700002A80C9068460E940F940D9002874487B5
:10A18000828704A81090A888AB1D0CAA05A9A2DF9D
:10A19000002832D1B06800282DD00120694688728D
:10A1A000194808810094307C087000204870887835
:10A1B000F9210840F721801C084038404008400041
:10A1C0006946887011A8B16800F0DFF902A90C9106
:10A1D00069460E940F940D9108874C87888700E09C
:10A1E0000BE011A810902A46E8880E320CA9A3DFD4
:10A1F000002802D100E0EC81204613B0F0BD000041
:10A200000F180000192A00000829000038B50A8834
:10A21000102A1CD0112A1CD0502A1DD1027D002AE0
:10A220001AD0CA884389891D9A4215D10A8B022AFD
:10A2300012D10268002A0FD0CB7E8C7E19022143F6
:10A24000C907C90F09D000216B46197008E0898839
:10A2500001E00021C943418238BD01216B461970DC
:10A260001946904738BD000070B53CC814493CC140
:10A270008468436802688C604B60124C00250A6059
:10A2800025701038006800280CD001882181418891
:10A2900061818188A181C188E1810B487ADF002832
:10A2A0000DD103E008487BDF002808D10020C0431F
:10A2B00060806570054A00210548FFF7C5FA70BD4A
:10A2C00050270020342000203C200020B1CB01008A
:10A2D00038200020F8B5294C07880026264A811C22
:10A2E000E389102F16D015466D68112F22D0122F3A
:10A2F00037D0502F1DD1C188801D994219D1018BB3
:10A30000022916D1C17E827E08021043C007C00F09
:10A310000DD11CE080885080888A1082C88A5082C3
:10A32000088B9082488BD0825670002B01D100F0B0
:10A3300075FAF8BD0020C043508056702846FFF7DC
:10A34000B7FB0028F5D0A169002908D1F8BD28463F
:10A35000FFF7AEFB0028F9D0A1690029F6D08847A5
:10A36000F8BD88881082C888508208899082488900
:10A37000D08200F053FAF8BD34200020502700208E
:10A3800030B585B0044601206946887156488880FA
:10A39000564A01A90120A0DF00287DD12288254648
:10A3A0003C35002A08D0524800902B46514861683D
:10A3B00000F0F2F800286FD12289002A08D04E4818
:10A3C00000902B464D48E16800F0E6F8002863D184
:10A3D000228A002A08D04A4800902B4649486169E1
:10A3E00000F0DAF800287CD1228B002A08D04648F9
:10A3F00000902B464548E16900F0CEF8002870D166
:10A40000228C002A08D0424800902B464148616ABD
:10A4100000F0C2F8002864D1228D002A08D03E48FE
:10A4200000902B463D48E16A00F0B6F8002858D16C
:10A43000206B002829D0027869460A720188FF2221
:10A44000120211400A0A69464A72FF220168120488
:10A4500011400A0C69468A7201682B460A0E694649
:10A46000CA7202790A73027A4A7301890A0A694632
:10A470008A7380680822000CC8732948009002A9DA
:10A48000284800F089F800282BD1606B00280BD0F9
:10A4900025490091027900E023E001682B4623481A
:10A4A00000F07AF800281CD1A06B002818D00278A0
:10A4B00069460A7242884A72120A8A728288CA728D
:10A4C000120A0A73C0884873000A887318480090FB
:10A4D0002B46072202A9174800F05EF8002800D199
:10A4E000002005B030BD00000A18000064200020E4
:10A4F00066200020292A00006E200020242A000067
:10A5000076200020252A00007E200020272A000037
:10A5100086200020262A00008E200020282A000005
:10A5200096200020232A00009E2000202A2A0000D6
:10A53000A6200020502A000010B5044600F008FBB9
:10A540002046FFF7C7FE21880948102902D01129AB
:10A5500005D101E0A18801E00021C94341802046E6
:10A56000FFF700FC21460348FFF750FE10BD000036
:10A57000002000201C24002070B504460D4608462B
:10A58000FDF742FE2080656070BD0A780270497850
:10A590004170022070470000F0B58FB01D46144690
:10A5A0000E00074604D1002211461046FFF72CF991
:10A5B000002C04D1002211461046FFF725F9002097
:10A5C00000900190029003900490059069460690D7
:10A5D0000A7802210A4369460A70012208A98A7092
:10A5E00069460F8407902A780A776A784A77897FC4
:10A5F000F9221140F722891C1140EF2211404A082C
:10A60000520069468A7708A9099107A90A910B9017
:10A610000C9069468C85C8850C8604480D9609AA5D
:10A620000088149BA2DF0FB0F0BD00006420002062
:10A63000F0B53E481422017883B051430C182669C6
:10A64000E0680C21029048433949012740180589E8
:10A650004189019140683F0700903869241D81B20B
:10A660003046FDF783FD002944D00022019861881F
:10A670004543009894462D18A08800230A18941981
:10A680002C4A13616246002A07D03A6992B28A4284
:10A6900032D0AC4201D100282ED0029903292BD010
:10A6A00001273F073969801989B2FDF75FFD214E07
:10A6B0008808F060386981B22046FDF757FD00290F
:10A6C0002FD0AC422DD0012000070069A4B2AFB258
:10A6D00081B23846FDF74AFD0546012000070069B2
:10A6E00081B22046FDF742FD85420ED1381B80081D
:10A6F000306116E00122B9E7386981B23046FDF7D2
:10A7000035FD0C49486103200CE001200007016978
:10A7100000698DB281B22046FDF728FD681A8008D5
:10A720003061022001F054FE03B0F0BD0829002082
:10A73000D4290020BC200020F8B51A4C069E65786C
:10A740000A2D2CD027787D190A2D00D30A3D142715
:10A750007D432D1928716A61086849682961E8609C
:10A76000EB802E8160781049401C607008780028CA
:10A7700013D12078142250430019C2880A6200794C
:10A78000012804D0032806D0042806D103E00120C4
:10A7900001F01EFE01E0FFF74BFF0020F8BD042092
:10A7A000F8BD000008290020BC20002038B5164C58
:10A7B000142120780C2548430019C36801796B43A4
:10A7C000124D0022ED58124B1B6A009343690C3066
:10A7D000A847217814225143002009190871C88024
:10A7E00002220861CA60486108816178491E61706F
:10A7F0002178491CC9B221700A2900D1207000209B
:10A8000001F0E6FD38BD000008290020D429002011
:10A81000BC20002000221146FEF7F6FFF8B51748CD
:10A82000194D4288164800260388164C69699A42D9
:10A830000BD34088824208D80120002903D06A4601
:10A840001070684688472670F8BD2078002804D02C
:10A850000029F8D068460670F4E7607800280AD02E
:10A86000A96800226068FFF7ADF80028EBD0A9695D
:10A870000029E7D1E7E76968F3E7000044200020FA
:10A880003C2000203420002050270020F8B52A4822
:10A890002A4E456808212A07002A45DB47697F1CA4
:10A8A0004761C068002805D02349042048703069FA
:10A8B0008047F8BD22481422017851430C18012129
:10A8C000090722690969E3882089521E181889B28C
:10A8D0008018FDF74BFC184987420ED30A461269CF
:10A8E000874201D1002A08D0002A13D0E80709D0F6
:10A8F00003204870F0688047F8BD02204870B068B7
:10A900008047F8BD0120054300204D604870306845
:10A910008047F8BD2079042802D0FFF747FFF8BD33
:10A92000012001F055FDF8BD8D4345604078800061
:10A9300030588047F8BD0000BC200020BCCD01008D
:10A940000829002030B40C49082348680B4A040742
:10A95000002C09DB830702D501231843486002203D
:10A960004870906830BC0047984348604878800041
:10A97000105830BC00470000BC200020BCCD0100B6
:10A98000F0B50E4683B0044681786A46224801F04D
:10A9900009FA002825D160780C21204F4843C019BE
:10A9A000807A40061FD4022E1DD0012E1DD01C4DD2
:10A9B000A0781C2148431B49002341181C226846EB
:10A9C000A847002813D0022E0BD020780C21484332
:10A9D00015494018807A154980000A582146684672
:10A9E000904703B0F0BD124DE2E7124DE0E7022EB2
:10A9F000F7D060780C214843C019817ABF221140FA
:10AA0000817260781C2148430B4941181C231A4667
:10AA10006846A847D9E700005C2000208C28002069
:10AA20002DC7010088270020982800208CCD010028
:10AA300081C1010085C001004C280020F8B5052423
:10AA4000354E0D460746002831D0014607223348CF
:10AA5000FDF7E1FB002847D0072239463048FDF7D3
:10AA6000DAFB002844D0072239462E48FDF7D3FBF5
:10AA7000002841D0072239462B48FDF7CCFB00289F
:10AA80003ED0072239463046FDF7C5FB00283BD0B3
:10AA9000072239462548FDF7BEFB002838D007229B
:10AAA00039462348FDF7B7FB002818D01AE02148A3
:10AAB000018B914218D0808E904219D01E48018A95
:10AAC000914219D0808D90421AD0308990421BD08B
:10AAD000B08C90421CD019480088904202D10620C8
:10AAE000002428602046F8BD002004462860F9E7CD
:10AAF000012000242860F5E7022000242860F1E707
:10AB0000032000242860EDE7042000242860E9E702
:10AB1000052000242860E5E7082800209827002069
:10AB2000B4270020D0270020EC2700202428002074
:10AB30004028002088270020C8270020482800201F
:10AB400010B5100003D000221146FEF75DFE10BDC7
:10AB5000F0B593B00546FF2100200F910090F94811
:10AB60000078002844D0F8480068002840D06846A3
:10AB700041718171C17100200E90281D06902A2319
:10AB80006846002183830171F04C0F462A88E17AE0
:10AB9000A07A102A0DD0AA880223184209D0EC4BC3
:10ABA0009A4202D02389934203D16B4600229971C5
:10ABB0005A71E54E2B88E74A767A172B7ED00ADC4D
:10ABC000102B17D0112B5DD0132B78D0142B0FD155
:10ABD000FF2975D0BEE0DC49897A8900182B70D036
:10ABE0001C2B6FD0522B03D1DB48415801A888475A
:10ABF00013B0F0BDD649C007C00FF9D00222A2722F
:10AC00000E4611236A46002113755171A9882181CE
:10AC100020460722A91DFDF7D3FA287DC10706D0DB
:10AC20004108CE48405CFF2808D00F9006E032462D
:10AC30000FA9A81DFFF702FF00285DD10F98082378
:10AC4000C1B2E172A27A68461A43A272817101AD63
:10AC500010AAC34801F0A6F800284DD168464079F3
:10AC60001C214843BF491C2340181A4610A901F073
:10AC700057F9B548807A8100BB484258294610A848
:10AC8000904789E1FD210840A072010706D5C0095F
:10AC90002DD0002101A8FFF773FE28E068468579D2
:10ACA000FF2D24D01C2029464143B0480E183046C1
:10ACB0001130FEF76FF93046102104E0AEE052E0AB
:10ACC0001BE023E165E1FDF794FAFF2030740021D9
:10ACD000B076C94331839B4901224B68AA40934314
:10ACE0004B600021A24AAB00D15069468871102107
:10ACF000A1721220694608754EE1EA890FA9002069
:10AD0000FFF79CFE002822D10F980822C1B2E17201
:10AD1000A07A01AE1043A0726846817102AA9048E1
:10AD200001F040F8002812D1684640791C214843C0
:10AD30008C491C2340181A4602A901F0F1F88248F8
:10AD4000807A810088484258314602A89047E07ACC
:10AD5000FF2801D083480090844AA88800230099E6
:10AD600082DF13B0F0BD13236E46337504231843FE
:10AD7000A072FF2924D01620307510461A21FDF745
:10AD800038FAA17A40221143A1720C2100207943A4
:10AD900009190B90C97A1C225143744A0D908918E5
:10ADA0000C911C217943C4328918089109900A90AA
:10ADB000A88808AB6F4A00217FDF0028D1D1EBE0E3
:10ADC0000FA86D4B694A2146002610901C20704345
:10ADD0008018807EFF2804D0761C072EF6D30E93B1
:10ADE000D3E70878022809D01C2070438018FD2280
:10ADF000827607221030FDF7E3F905E030461C218A
:10AE000048438018FE2181761098694606700F9895
:10AE100088710C2179430919C872B6E74A4A730848
:10AE20005B005372FB221040A07214226B461A750D
:10AE3000AA79002A2DD00E4610AA494800F0B2FF88
:10AE4000002823D1742110A800F0DCFF00281DD1B8
:10AE50001C20009646434548361830461130FEF710
:10AE600099F830461021FDF7C4F9FF213174B1760D
:10AE70000020C04330833348009E01214268B14026
:10AE80008A43426000203A49B2008850A8790E9067
:10AE900082E0EA7952077FD59A79FF2A7CD008268A
:10AEA0003043A072E87A2346800708D51C20154657
:10AEB00045432E482818857E6D086D008576FF294C
:10AEC0006AD01878022811D01C20284D424350190E
:10AED000214607221030FDF773F9684680791C215E
:10AEE00048434019817EFD22114009E01D48418AF6
:10AEF0001C2042431D4810180183817E49084900E7
:10AF00008176012101A8FFF73BFD45E0AB791D09E2
:10AF1000012D33D11B071B0F012B2FD103072DD57B
:10AF200010461A21FDF765F9162069460875A17AC1
:10AF300060221143A1720449304602221043487234
:10AF40002AE000004C200020982800208C280020B7
:10AF5000FFFF000070280020ACCD0100542000202D
:10AF60005C2000204C2800209CCD01008827002078
:10AF70006C2700209C280020438000008022104382
:10AF8000A07215206A4610751148415801A88847DB
:10AF900002E01320694608750E4B01A81B6805A93D
:10AFA0000E9A98476846007D122800D0D9E60C20FA
:10AFB00047433819817A0129F8D001218172891E0D
:10AFC0000181FF21C172FDF7EDFF13B0F0BD00005C
:10AFD000ACCD010098280020F1B584B00498002879
:10AFE00058D03B48002606604672867201253948D3
:10AFF000A91E85720181FF27C772FDF7D3FF36496D
:10B00000364F08467C30CE6746608660C660066173
:10B0100046618661C661002406621C206043C51932
:10B0200028461130FDF7B6FF28461021FDF7E1F85C
:10B03000FF2028740021A876C943298328490122CA
:10B040004B68A24093434B602649A2008E5026498C
:10B050000855641C072CE0D37421684681800721C1
:10B06000C180224800902249684600F0A1FF0028D4
:10B070000ED11B4D012028700498007800280CD0B8
:10B0800069468888C988484381B2194800F0BAFEE9
:10B0900005B0F0BD174805B0F0BD0024A1B202AA6A
:10B0A000134800F07FFE002809D11C206043C0191E
:10B0B00000231C2202A900F033FF002802D02E70CA
:10B0C00005B0F0BD641C072CE8D305B0F0BD00004E
:10B0D000982800208C280020EC27002088270020BA
:10B0E0004C2000206C27002054200020F9B00100E3
:10B0F0005C2000200E800000FFB55F4893B0006820
:10B100001C9F1E46002870D0742F6ED8FF21684601
:10B11000417081700025C170057005712C4605973E
:10B120000696A1B20AAA554800F03CFE002806D1B6
:10B1300008220AA91398FDF76EF8002818D0641C9D
:10B14000072CEED368468478FF2C4ED01498032841
:10B1500011D04B481C21301AFDF708F801270728A9
:10B1600021D204A802901599464800290DD011E07B
:10B1700068468470E6E7742F03D040206946087162
:10B1800070E02020694608716CE039464268A140B1
:10B19000114265D039464268A1408A43426020206E
:10B1A000694608714BE038481C21301AFCF7DEFF75
:10B1B00000281BD035482421301AFCF7D7FF34492A
:10B1C00000282AD040206A4610713248864249D071
:10B1D000314AA0001058B04242D104A80290C87A67
:10B1E00084422CD16846457029E039E004A80290D9
:10B1F00020216846017145702848109058380C90FD
:10B200000F95684680781C2148431D4940180D90D1
:10B210000CA806901820059011E0302268460271B3
:10B220004570C770887A800709D418480560456062
:10B230008560C560056145618561C56105621498D9
:10B2400069460228087914D002210843694608712A
:10B2500004A8094B02901B68684601A9159A9847F3
:10B2600017B0F0BD684601790320014368460171BB
:10B27000EEE73843EBE70000982800205C20002030
:10B28000882700204C2000204C280020682800201F
:10B290008C28002088CD01006C270020A4280020E5
:10B2A00070B5064617480D46007800280DD016499F
:10B2B000002E0CD0002D0AD02868002807D0134C8F
:10B2C0002168002905D0124870BD124870BD08469B
:10B2D00070BD2060691D1048FDF76FFE2879A072CF
:10B2E000207A0222400840001043FB2318402072BD
:10B2F000E1790120014311431940E17100203070D0
:10B3000070BD00004C2000200E8000009828002016
:10B3100004800000088000009C280020F8B5374C0D
:10B320000820277821460097496846060A46814347
:10B330003348142503786B431D18012F06D0022FC4
:10B3400056D0032F27D1100733D52FE012072DD465
:10B35000E988A28B891A0904090CE98019D00278BE
:10B3600014235A43151830692D1D80B2884213D218
:10B37000306980B2091A3069AB880004820CE86831
:10B38000C0182B694018591800F03EF8306980B297
:10B390000AE0FFF70BFAF8BDAA88E86880188A0867
:10B3A000296900F031F86888E061F8BD38466160CD
:10B3B0001BE067697F1C67612A693169EB8828890E
:10B3C000521E181889B28018FCF7D0FE87420BD3A2
:10B3D000874202D12069002806D028790428D8D1D4
:10B3E000012000F0F5FFF8BD009800F0F1FFF8BD76
:10B3F00060780449800008588047F8BDBC200020D0
:10B4000008290020D0CD010038B529DF020015D071
:10B410000D4B112A13D00D48142401780C256143DB
:10B420000818C46801796C43094D1B6A2C590093B4
:10B4300043690C30A047042000F0CAFF38BD5868AB
:10B4400008210843586038BDBC200020082900208E
:10B45000D42900200020704700207047002070474A
:10B46000F8B50546407824214143254A0C238A1823
:10B470009446584300245268224B2746C01826465B
:10B480009646002A0BD0837A1A46DB0907D053066A
:10B4900005D41B4A6446734656589FB20834008947
:10B4A00033463A462146A9DF0B281BD0002800D09E
:10B4B0001548012E15D168780C2148431149134ACB
:10B4C000401800890C21A7DF00280AD010498842C3
:10B4D00013D0082811D0891C88420ED011280CD016
:10B4E0000020F8BD68780C21484306490123401824
:10B4F00000893A462146A9DFDDE70348F8BD000090
:10B50000682800208C28002041800000FFFF0000F8
:10B510000230000070B50C46014660782422084DC8
:10B5200050434019382300F0FBFC002807D1617814
:10B530002422514349194A68521C00D14A6070BD07
:10B5400068280020F3B589B00D461A206946888323
:10B5500068780C2103274843264E3B468019008912
:10B5600007AA6946AADF002840D168782421484309
:10B57000214C694600198A8B0830FCF74CFE0028E4
:10B58000687807D02421484301194968002915D05B
:10B590001A4E14E00C2141438919897A890725D470
:10B5A0002421484300190021016041608160C1608D
:10B5B000016141618161C161016217E0104E275054
:10B5C0006846828B68782421484300194260687875
:10B5D0004843001969460830FCF7F2FD68782421D9
:10B5E00048430119382324220998B04700200BB0A2
:10B5F000F0BD00008C2800206828002081C10100D7
:10B6000085C0010010B5FFF72BFF10BD70B50C46CB
:10B61000014660782422084D50434019382300F039
:10B620007FFC002807D161782422514349194A68D8
:10B63000521C00D14A6070BD6828002010B5FFF789
:10B6400081FF10BDF0B52F4C2F4D676808203907DA
:10B6500083B000294EDB2D4814220178514308188D
:10B6600001900121090702690969C3880089521EF6
:10B670001818801889B20090FCF778FD21460E69F1
:10B680004C69002E0BD0844209D1002001221743BF
:10B690004F60C86048702868804703B0F0BD012043
:10B6A0000007006981B20098FCF760FD15498442EB
:10B6B0000BD3844201D1002E07D0002E0DD00320E1
:10B6C0004870E868804703B0F0BD0020C8600220E1
:10B6D0004870A868804703B0F0BD0198007904283D
:10B6E00003D0FFF763F803B0F0BD012000F070FE57
:10B6F00003B0F0BD874367606078800028588047BA
:10B7000003B0F0BDBC200020BCCD01000829002002
:10B71000A6B0AE4803268660AD4904208860FF22AB
:10B7200001271146AB48FCF75DFDAA4801250570CD
:10B73000FF221146A848FCF755FDA74800240570D4
:10B74000FF20A64B0522062148300094FEF7A8F8FA
:10B7500000287DD100234822A149082000F0E8FEFE
:10B76000002875D1009468460194047060DF0028B9
:10B770006ED19C4800F0D2FE002869D19A4800F0B2
:10B78000F3FE002864D16846077400F08BFB0028A4
:10B790005ED104A8FFF720FC002859D101A8013090
:10B7A000FDF7F1FB69464879E121A8430840DF2114
:10B7B0000C30084069464871072088711020C87114
:10B7C0008A4800900D718A48FFF76AFD00283FD132
:10B7D0006946112008708748406A87A283B288A111
:10B7E00001A8FDF7A5FB01A8FCF70EFD82B201A997
:10B7F00068467CDF00282BD1FF21069491316846F2
:10B80000079401830521C9014183FF278583F5370B
:10B81000C78306A87ADF00281AD1001F77DF002827
:10B8200016D1794800F068FA01200146109411946D
:10B830001294139410A810311494417301200146FE
:10B8400010A8103181730020014610A8C17300E0D8
:10B850008CE00120014610A81031017405716421AB
:10B86000017301466948FEF725FC00287ED140217E
:10B870006846FCF7BEFC66A16846FEF77DFE66A141
:10B8800002A8FEF779FE67A108A8FEF775FE65A17C
:10B890000AA8FEF771FE0120014608A810310177C1
:10B8A0000020014608A841776846FEF769FD002898
:10B8B0005CD1011F684601710294049405940694BA
:10B8C0000794089409940A940B940C9402210D9403
:10B8D000017285720622C2721C9401A821941A94E6
:10B8E0001B941D9403901F942094229418A805750E
:10B8F0004D481E904D484E4B42680068109411947C
:10B900000F94159416940E941294149425922490E6
:10B9100017941894199410A8018124A813901AAAB6
:10B920000EA9009402A8FEF755F9002849D1019705
:10B93000404F009403940494684602970673C481B0
:10B9400004743D4805903D4806906846FEF78CFC1F
:10B95000002836D13A4845600321072033DF3949B2
:10B960008020086038484460416800E029E01822DF
:10B9700011434160416841600560FDF73DF833487F
:10B98000FCF7B0FFFDF7EEF9314A01213148FDF730
:10B990005BFF002815D13048002239468068FEF749
:10B9A00011F800280DD10320FEF742FA002808D133
:10B9B00007490420C860002000F050F848DF002844
:10B9C000FCD000221146FDF71FFF000000070050C9
:10B9D0000005005034240020332500201C210020C5
:10B9E000D423002039A5010059C7010041AB010053
:10B9F00001200020800000105254656D700000008E
:10BA000025735F2530345800322600201C24002086
:10BA1000526F6C69000000005254656D7020312E29
:10BA200030000000312E30006406000060CD0100BF
:10BA300019BC0100B50B000031BC010015A80100C4
:10BA40000073004000E100E000750040983A0000FB
:10BA50005DBA01000820002000200020F0B583B06E
:10BA600069460120FDF71EF94A4C04264A4F00287A
:10BA70002CD0BE60C82000F0BDF8FE6001A90020F7
:10BA8000FDF710F9002827D0BE60C82000F0B2F8FA
:10BA9000FE60424A3F49424800F006FC3F4A3D49A9
:10BAA0003F4800F0ABFB3F4C002520781E2819D3FF
:10BAB000A31C384A3C493A4800F046FCA31C354ACE
:10BAC0003A49374800F0CEFB25700DE06846008803
:10BAD000FDF7D0F82060D1E768468088FDF7B6F81A
:10BAE0006060D6E7401C2070009549DF0098002870
:10BAF00004D168464BDF00980028FAD02C49012079
:10BB000008606068FCF756FD2A4A2B4BFCF7D8FC0E
:10BB100004460D46294A2A4BFCF788FD01D86421CA
:10BB200025E0284A284B20462946FCF77FFD01D80E
:10BB30005A211CE0254A264B20462946FCF776FD73
:10BB400001D8462113E01D4A224B20462946FCF726
:10BB50006DFD01D832210AE01C4A1F4B20462946C0
:10BB6000FCF764FD01D80F2101E00021BE601B48F5
:10BB7000FEF768FA00280BD0082809D01849884237
:10BB800006D01849884203D000221146FDF73CFE3A
:10BB900003B0F0BD0C200020000500500220002062
:10BBA00032260020002000203424002033250020ED
:10BBB0000070004017765A83B6E98C3F3333333335
:10BBC000333307406666666666660640CDCCCCCCED
:10BBD000CCCC044033330340CCCC02401C240020A6
:10BBE000043000000134000000207047002070473E
:10BBF0000020704731B50098002809D0054C009905
:10BC00002046491E0091FCF765FA00990029F6D1FB
:10BC100038BD0000E7030000002808D110B53CDF64
:10BC2000002803D000221146FDF7EEFD10BD70473D
:10BC300010B50078002809D105483B21408876DFFF
:10BC4000002803D000221146FDF7DEFD10BD0000E4
:10BC500000200020F0B5002403260122234B244DB0
:10BC6000244983B005280DD207007F443F79FF198E
:10BC7000BF44020A2E192000487801281AD0022851
:10BC800000D14E7003B0F0BD4878002805D00328DD
:10BC9000F8D10220487003B0F0BD042028601A607B
:10BCA0004A7003B0F0BD4878012809D0022807D0B7
:10BCB0000328F6D14C70DA605A602C6003B0F0BDF6
:10BCC000DA604A70684606708968884703B0F0BD3C
:10BCD00048780128FAD14878022800D09A608878FC
:10BCE000E8610220487003B0F0BD00000020004071
:10BCF00000250040B020002070B51F4A04460FCA3E
:10BD000086B002AE0FC6002568468580811D02A858
:10BD100063DF002803D000221146FDF775FD22469F
:10BD200001A90120A0DF002803D000221146FDF761
:10BD30006BFD01260423A21C314620460096FDF728
:10BD400097FB224601230A32022120460096FDF786
:10BD50008FFB2246FF231232032120460095FDF778
:10BD600087FB2246FF231A32042120460095FDF767
:10BD70007FFB06B070BD000068CD0100074909795E
:10BD8000490701D408207047002804D004494978A5
:10BD90000160002070470E2070470000BC2000208A
:10BDA0000829002070B4154B1B795B0702D470BCC6
:10BDB00008207047002818D0002A16D00368022BEC
:10BDC00010D20C240E4D5C432E59002E0AD046682A
:10BDD00060190489458940686143654371182818D2
:10BDE000884205D870BC0720704770BC0E20704791
:10BDF0001360516070BC002070470000BC20002020
:10BE0000D4290020F0B50446244883B000790D46BB
:10BE1000400702D4082003B0F0BD002C18D02068E1
:10BE200002282DD20C2148431D490A58002A27D048
:10BE30004018418901910289009247685143666820
:10BE4000C819B0421CD9B00705D0102003B0F0BD0E
:10BE50000E2003B0F0BDF01B1146FCF787F9002956
:10BE60000ED128460099FCF781F9002908D1002D50
:10BE700006D001990098484371193818814202D9B7
:10BE8000072003B0F0BD0020024600902B4621465B
:10BE90000320FEF751FC03B0F0BD0000BC200020E1
:10BEA000D429002070B50024184A2046147054701C
:10BEB00002231421414389180C71CC800C614C6120
:10BEC000CB60401C0C810A28F3D3114D11486C80C3
:10BED0004069114E411C04D0316989B2FCF746F922
:10BEE00000E070693169C01E89B248436C61A86086
:10BEF0000A48046004814481C4608482C4822C7036
:10BF0000AC610420EC616860002070BD082900204D
:10BF1000BC2000200010001000000010D4290020D8
:10BF2000F8B507462048164600790D46400701D46B
:10BF30000820F8BD002D1CD0002F1AD02868022838
:10BF400015D20C21194C4843215800290FD0011952
:10BF50004A89088949684243521869688A4206D961
:10BF6000002E04D0B04202D3F218824203D9072037
:10BF7000F8BD0E20F8BD38461843800701D1880768
:10BF800001D01020F8BDC91832463846FCF718F920
:10BF9000009628680C214843245800223B46022181
:10BFA0002846A0470020F8BDBC200020D42900204E
:10BFB000F8B5044630480F460079400701D4082000
:10BFC000F8BD002C1AD0002F18D02068002815D0FA
:10BFD000012636073069A58880B2A84220D3102DEB
:10BFE0001ED3E088009000281AD024484069411CE4
:10BFF00006D0316989B2FCF7B9F802E00E20F8BD2D
:10C000007069012109070969401E89B248431A492C
:10C01000009A8E686A439219904201D3A80701D012
:10C020000720F8BD4D88022D23D028460C21484317
:10C0300013497E6002463D604018466023688B507D
:10C04000A1880181E188012741813F073869E288A1
:10C0500081B2A0885043401EFCF79EF83969401C0D
:10C0600089B24143891904486D1C816045800020D4
:10C07000F8BD0420F8BD0000BC2000200010001016
:10C08000D4290020F8B51C461B4B1B795B0701D453
:10C090000820F8BD00291CD000281AD00368022B04
:10C0A00015D20C256B43154DEE58002E0FD05B19A1
:10C0B0005E891D895B686E43F61843689E4206D907
:10C0C000002A04D0954202D31619AE4203D90720A4
:10C0D000F8BD0E20F8BD0D462543AD0701D19B07E5
:10C0E00001D01020F8BD13460A46014601200094F5
:10C0F000FEF722FBF8BD0000BC200020D429002060
:10C1000038B51B4B01461878002811D004280FD0F1
:10C11000022929D003290BD11979090724D4996957
:10C12000491C996103290AD0022802D000F050F975
:10C1300038BD58780F4980000858804738BD0E48F0
:10C14000142401780C2561430818C46801796C43F4
:10C150000A4D1B6A2C5900930D2243690C30A047ED
:10C16000042000F035F938BDFFF7D8F838BD0000DD
:10C17000BC200020BCCD010008290020D4290020CB
:10C18000F8B51C461B4B1B795B0701D40820F8BD92
:10C1900000291CD000281AD00368022B15D20C25C8
:10C1A0006B43154DEE58002E0FD05B195E891D892B
:10C1B0005B686E43F61843689E4206D9002A04D095
:10C1C000954202D31619AE4203D90720F8BD0E20BE
:10C1D000F8BD0D462543AD0701D19B0701D01020C6
:10C1E000F8BD13460A46014604200094FEF7A4FA5F
:10C1F000F8BD0000BC200020D4290020F0B5064680
:10C2000087B015464868FCF7FCF9694608740120B8
:10C2100000240094088004AA4C800192104F718978
:10C220006A463846A4DF002803D000221146FDF7F5
:10C23000EBFA28880121B8420FD068468182009429
:10C24000019402940394718901800121817084809A
:10C2500005A8029028886946A6DF07B0F0BD000057
:10C26000FFFF000070B50C7882B00D460646FF2C2B
:10C2700000D301245068FCF7C4F92855641CFF2141
:10C280002C7000206A460090118050800195718BBF
:10C290000448A4DF002803D000221146FDF7B4FAB9
:10C2A00002B070BDFFFF0000F0B50C68064687B015
:10C2B00015462046FCF78CF947B23846FCF768F97A
:10C2C0002146FCF70AF81E49FCF70BF8FCF780F949
:10C2D00041B2FF20C005C44201D2002000E0FF208F
:10C2E00002063804104309020143AA200143042036
:10C2F000049100246A460094108004A95480114FD0
:10C30000019171883846A4DF002803D0002211462D
:10C31000FDF77AFA28880421B8420FD06846818256
:10C32000009401940294039471880180012181702A
:10C33000848005A8029028886946A6DF07B0F0BD72
:10C3400000002041FFFF0000FFB50C7883B00D46D0
:10C35000FF2C00D3012417683846FCF752F901225C
:10C360000146D205C0B2974201DA012200E0002264
:10C3700056424640802216404640C8B2FCF713F9A8
:10C380003946FBF7AAFF3F210906884201DB01205D
:10C3900000E0002040427040402108407040285595
:10C3A000641CFF212C7000206A4600901180508090
:10C3B00003980195418A0548A4DF002803D0002294
:10C3C0001146FDF721FA07B0F0BD0000FFFF0000A5
:10C3D000F8B501464A4C4B4E21703078142358432F
:10C3E00000228019002920D001273F0701292FD0E2
:10C3F000082502294DD0032927D1606928DF0028AC
:10C4000023D0112877D00246307814214843801970
:10C41000C3680C256B433C4D0179ED58236A0093AA
:10C4200043690C30A8470421D4E7A261E261717826
:10C4300000290AD0C18821620079012806D003288A
:10C4400001D0042801D1FEF7F3F8F8BD0121C1E7BE
:10C45000051D3869698880B2884210D2386980B277
:10C46000091A3869AB880004820CE868C0182B6987
:10C4700040185918FEF7C8FF386980B207E0AA884B
:10C48000E86880188A082969FEF7BEFF6888E061BD
:10C49000F8BD6168051D4E08760066600069009071
:10C4A00001200007006981B20098FBF75FFE074694
:10C4B00060610120000700696A8881B20098401E0F
:10C4C0001018FBF753FE0221874201D10E4300E012
:10C4D0008E4366603246E0680A4002430B4805D04E
:10C4E0000021617000688047F8BD04E0022161709E
:10C4F00080688047F8BD606828436060F8BD000030
:10C50000BC20002008290020D4290020BCCD010037
:10C5100010B508461146C046C04610BD002803D0DD
:10C520000249C860002070470E2070470421002097
:10C53000002901D10720704730B48C0702D00720B2
:10C5400030BC7047064CA16062800649636010DF12
:10C550000028F5D10120207016202EDF30BC704756
:10C560000421002011C50100002803D00249086100
:10C57000002070470E2070470421002038B5104C71
:10C58000606928DF020014D0112A13D00D4814234B
:10C5900001780C2559430818C36801796B430A4D8B
:10C5A000ED58236A009343690C30A8470420FFF735
:10C5B0000FFF38BD606808210843606038BD000087
:10C5C000BC20002008290020D429002010B50C48E8
:10C5D00040690C4C411C04D0216989B2FBF7C6FDAF
:10C5E00000E060692169401E89B241432069064A22
:10C5F00080B25369D2685B1E5843FEF705FF10BD39
:10C600000010001000000010BC20002070B513487E
:10C61000142201780125514308182D070269296960
:10C62000C388008989B2181880180446FBF79EFD5C
:10C630000B480E464069411C04D0296989B2FBF7BA
:10C6400095FD00E068692969401E89B24843054AA2
:10C65000811920461269FEF7D7FE70BD0829002017
:10C6600000100010BC20002038B5012424072069E8
:10C6700085B219484069411C04D0216989B2FBF791
:10C6800075FD00E060692169401E89B24843294672
:10C69000FBF76CFD28DF002817D0104B112815D0B0
:10C6A00002460F48142401780C2561430C18E068F9
:10C6B000217968430B4D2D58186A009020460C30A4
:10C6C0006369A8470420FFF783FE38BD5868082136
:10C6D0000843586038BD000000100010BC20002046
:10C6E00008290020D429002070B5012424072069DE
:10C6F0000004860C206985B20A48406945430A480F
:10C700004069411C04D0216989B2FBF72FFD00E08C
:10C7100060692169401E89B2484332462946FEF7C6
:10C7200073FE70BDBC200020001000100020704778
:10C730000748084A41680B0703D40121417050683B
:10C740000047082399434160407880001058004713
:10C75000BC200020BCCD010010B50446FFF7D0FC82
:10C760002046FDF74DFB10BD10B50E4841680A0785
:10C770000ED40D481422017851430818007904287A
:10C7800002D0FEF713F810BD0120FFF721FE10BD07
:10C79000082291434160407804498000085880474E
:10C7A00010BD0000BC20002008290020BCCD0100E5
:10C7B000F0B5002095B0C043F14A0A905169089144
:10C7C0009378D4781069A34211D05B1CDBB29370CC
:10C7D000022B01D1002393701B06EA4C9B0DE358FA
:10C7E000079359180902090A5161012101E000214A
:10C7F00007911191E2490F90497804914A1E0292E3
:10C80000D2B20592DE4A0029D368109392680C9246
:10C8100073D0DB490C9C4A69039249790D910E93C0
:10C820000599CA000E9955182B786978994258D005
:10C83000182159436A685B1C5118AA78DBB29A42E6
:10C8400000D100230A78022A02D0032A46D13BE015
:10C85000496824220E46514309198C46097D002956
:10C860003CD002460146471C2AD0B14207D00A46B6
:10C87000242151430919096A4F1CF6D120E0002FE9
:10C880001ED08A420CD1242670430019006A461C2F
:10C8900006D1BD4F0126BE600026039601260D96E7
:10C8A0002426714309194F687243096A12191162EB
:10C8B0004A1C05D02422514309194A68D2194A60FA
:10C8C00000216246117509E0411C07D00021242295
:10C8D000504300190175006A421CF8D169789942E9
:10C8E000A6D1059A511EC9B20591002A98D1A44932
:10C8F0000861039848610D984871A14802690F9832
:10C90000824201D0012000E000200F901198002801
:10C9100026D00024089E0799521C1FD0984A242034
:10C9200015690C9B6843C01843688B4202D9591A99
:10C93000416013E0C91A1C19002343600375036AA0
:10C9400013610269002A07D037193F023F0A876046
:10C95000C2600A9A02620A955B1CDFD101200F9027
:10C960000A9811908648029A006909900499D2B2F7
:10C970000492002973D082490C9A4B690393497938
:10C980000D9110990E910499CB000E995C1886E0D8
:10C990001199491C06D0119F2421794389180B6AEB
:10C9A000119323E0217818234B436568491CC9B2D1
:10C9B000EB182170A578A94201D1002121705F6890
:10C9C000242179431D788918012D6CD10D7D002D0E
:10C9D00069D19D688D60DD68CD601D690D615B6901
:10C9E000CB610D9B002B01D000238B608D68039BD6
:10C9F000664EEB1A1B021B0AB34203D2CD685B19C9
:10CA00004B600AE0039B5B1B1B02CD681B0A9D4227
:10CA100001D9EB1A00E000234B6000238B60CB6050
:10CA200001230B759B1E0B622421794389188C46C8
:10CA3000411C15D061464B6824214143891849683F
:10CA40008B420FD82421414389184968CB1A2421ED
:10CA5000414389184B606146086238461FE02FE069
:10CA600038461CE001460A9002E00A91296A9B1BA5
:10CA70004D1C0BD024254D43AD186E689E42F4D357
:10CA800024264E43B6187668F61A6E6065466B60CB
:10CA9000634619620A992423594389180F62119930
:10CAA000491C00D074E7217863789942FAD104993F
:10CAB0004B1EDBB20493002900D064E730490861C3
:10CAC0002F4809990069884202D10F99002952D054
:10CAD0002B4D2F49421C3AD0242358430C9B2A4605
:10CAE000C01846682B4844685769E01B05022D0AA8
:10CAF0001079ED1C002812D10120274A0004506053
:10CB00004860264940000860254908601E49012008
:10CB100008602F20FBF7EEFA194901200871B54291
:10CB200000D23546E81900021E49000A086019497A
:10CB30004968001B091B0902090A0002000AC91CF6
:10CB4000814218D9012018494004086013E00124EB
:10CB5000164A60041060104A4010906088600A4EC7
:10CB600074602F20FBF7C6FAB46000242F206C619C
:10CB7000FBF7C0FA2C7102490020487115B0F0BDD6
:10CB8000E0200020FC20002000100140FFFF7F007B
:10CB900000130140001501404013014080E200E015
:10CBA00000E100E04015014000E200E080E100E02B
:10CBB00038B51549154A488890420FD04A78144C28
:10CBC000521CD2B24A70237B934208D3114975DFBD
:10CBD000002803D0A169002900D0884738BD00256E
:10CBE0004D70217C002907D03B2176DF002803D03F
:10CBF000A169002900D0884761690029EED0684604
:10CC00000570884738BD000034200020FFFF000079
:10CC1000502700203C200020FFB585B005460220AB
:10CC2000864608980E9C029100902078019000277B
:10CC300028883E4600283FDD6868B1004018028819
:10CC400069460A8240884882002203A904A865DF59
:10CC500000285CD16846017B714520D1002F01D0AE
:10CC6000002200E002222078891841181F294DD89F
:10CC7000002F07D1401CC0B2411C009B029A2170BA
:10CC80001A540127217800980A1803A904A865DF1F
:10CC900000283CD169462078097B401820702888FC
:10CCA000761CB042C8DC002F06D021780198019A8A
:10CCB000081A0099401E8854079802901020864652
:10CCC00008980E9C009020780190002728883E4606
:10CCD000002842DD6868B1004018028869460A826F
:10CCE00040884882002203A904A865DF00280ED1ED
:10CCF0006846017B714523D1002F01D0002200E05E
:10CD000002222078891841181F2902D90C2009B065
:10CD1000F0BD002F07D1401CC1B2481C009B029AF5
:10CD200020705A540127217800980A1803A904A8F2
:10CD300065DF0028EBD169462078097B4018207018
:10CD40002888761CB042C5DC002F06D021780198D7
:10CD5000019A081A0099401E8854002009B0F0BDBD
:10CD60000F18010000000200BB28176039A611E669
:10CD7000874B0002A5D5C51BBB28176039A611E655
:10CD8000874B0002A5D5C51BFFFFFFFFF1BB0100CC
:10CD900045B501005DB401003DB60100EDBB0100E9
:10CDA00015B5010059B401000DB60100E9BB010041
:10CDB00061B4010055B4010005B6010069C6010067
:10CDC000E9C601007DC501000DC60100CDC5010009
:10CDD00031C7010045A901008DA8010069C7010004
:10CDE00045B6010004CE0100002000201C01000017
:10CDF000D08F010020CF01001C210020D4100000A2
:10CE0000E08F01001E00FFFFFE0000000000000098
:10CE10000000000000000000000000000000000012
:10CE2000FFFF000000000000000000000000000004
:10CE300000000000000000000000000000000000F2
:10CE400000000000000000000000000000000000E2
:10CE500000000000000000000000000000000000D2
:10CE600000000000000000000000000000000000C2
:10CE700000000000000000000000000000000000B2
:10CE800000000000000000000000000000000000A2
:10CE90000000000000000000000000000000000092
:10CEA0000000000000000000000000000000000082
:10CEB0000000000001000000FFFF00000000000073
:10CEC0000000000000000000000000000000000062
:10CED0000000000000000000000000000000000052
:10CEE0000000000000000000000000000000000042
:10CEF0000000000000000000000000000000000032
:10CF00000000000000000000000000000000000021
:10CF10000000000000000000000000000024F400F9
:04000005000180C1B5
:00000001FF
